:100000000C9454000C947C000C947C000C947C00A8
:100010000C947C000C947C000C947C000C947C0070
:100020000C947C000C947C000C947C000C947C0060
:100030000C947C000C947C000C947C000C947C0050
:100040000C94A3040C947C000C9471040C944B0449
:100050000C947C000C947C000C947C000C947C0030
:100060000C947C000C947C004E414E494E495459EE
:10007000494E46CDCCCC3D0AD7233C17B7D1387773
:10008000CC2B329595E6241FB14F0A000020410089
:1000900000C84200401C4620BCBE4CCA1B0E5AAED3
:1000A000C59D7400ED04560711241FBECFEFD8E0A4
:1000B000DEBFCDBF22E0A4E1B2E001C01D92A53DAC
:1000C000B207E1F712E0A0E0B1E0E4E1FBE102C039
:1000D00005900D92A431B107D9F710E0C3E5D0E047
:1000E00004C02197FE010E94850BC235D107C9F7D4
:1000F0000E9437050C947D0D0C940000FC012481B6
:1001000035816217730748F480819181009729F047
:10011000860F971FFC018081089580E0089508955F
:10012000AF92BF92CF92DF92EF92FF920F931F9305
:10013000CF93DF936C017B018B01040F151FEB0143
:100140005E01AE18BF08C017D10759F06991D601FA
:10015000ED91FC910190F081E02DC6010995892B6C
:1001600079F7C501DF91CF911F910F91FF90EF902B
:10017000DF90CF90BF90AF900895FC01538D448DD8
:10018000252F30E0842F90E0821B930B541710F042
:10019000CF96089501970895FC01918D828D98174F
:1001A00061F0A28DAE0FBF2FB11D5D968C91928D27
:1001B0009F5F9F73928F90E008958FEF9FEF089558
:1001C0002FB7F8948091220290912302A0912402EB
:1001D000B09125022FBF80932E0290932F02A093FF
:1001E0003002B093310286E292E00E94CC0097FF89
:1001F00026C02FB7F8948091220290912302A091FB
:100200002402B09125022FBF40912E0250912F025F
:100210006091300270913102841B950BA60BB70BD5
:1002200040912A0250912B0260912C0270912D0274
:1002300084179507A607B707B0F28FEF9FEF0895D1
:10024000FC01918D828D981731F0828DE80FF11DA0
:10025000858D90E008958FEF9FEF0895FC01918DBB
:10026000228D892F90E0805C9F4F821B91098F73B4
:100270009927089586E292E00E942E0121E0892BC1
:1002800009F420E0822F089580E090E0892B29F086
:100290000E943A0181110C9400000895FC01A48D84
:1002A000A80FB92FB11DA35ABF4F2C91848D90E098
:1002B00001968F739927848FA689B7892C93A0897B
:1002C000B1898C91837080648C93938D848D981305
:1002D00006C00288F389E02D80818F7D8083089598
:1002E000EF92FF920F931F93CF93DF93EC0181E086
:1002F000888F9B8D8C8D98131AC0E889F98980812D
:1003000085FF15C09FB7F894EE89FF896083E8895F
:10031000F98980818370806480839FBF81E090E051
:10032000DF91CF911F910F91FF90EF900895F62EDE
:100330000B8D10E00F5F1F4F0F731127E02E8C8D78
:100340008E110CC00FB607FCFACFE889F9898081BD
:1003500085FFF5CFCE010E944E01F1CFEB8DEC0F62
:10036000FD2FF11DE35AFF4FF0829FB7F8940B8FDA
:10037000EA89FB8980818062CFCFCF93DF93EC0144
:10038000888D8823B9F0AA89BB89E889F9898C917D
:1003900085FD03C0808186FD0DC00FB607FCF7CF39
:1003A0008C9185FFF2CF808185FFEDCFCE010E9439
:1003B0004E01E9CFDF91CF9108953FB7F894809136
:1003C000150290911602A0911702B091180226B55D
:1003D000A89B05C02F3F19F00196A11DB11D3FBF7D
:1003E000BA2FA92F982F8827BC01CD01620F711D4C
:1003F000811D911D42E0660F771F881F991F4A9546
:10040000D1F70895EF92FF920F931F93CF93DF934D
:100410008C01FC01E480F580C1E0D0E06D2F70E03C
:100420006E157F0530F5D11112C070E060E0C80193
:100430000E947E00282F082E000C330B2053310918
:100440002A30310510F08D3291F4CF5F0EC0C80113
:100450000E947E00282F082E000C330B20533109F8
:100460002A30310590F38E3281F3DF5FD7CFC0E0C1
:10047000FCCF81E0DC1380E0DF91CF911F910F91E1
:10048000FF90EF900895FC0101900020E9F731976B
:10049000AF01481B590BBC0186E292E00C9490001E
:1004A00088E191E00C9443028F929F92AF92BF92A9
:1004B0000F931F93CF93DF93CDB7DEB7A1970FB6FE
:1004C000F894DEBF0FBECDBF19A2423008F44AE057
:1004D0008E010F5D1F4F842E912CB12CA12CA501F4
:1004E00094010E94630BE62FB901CA01EA30F4F4CB
:1004F000E05DD801EE938D01232B242B252B79F77A
:1005000090E080E0109719F0CD010E944302A1967F
:100510000FB6F894DEBF0FBECDBFDF91CF911F9114
:100520000F91BF90AF909F908F900895E95CE1CFBD
:100530004F925F926F927F928F929F92AF92BF92F3
:10054000CF92DF92EF92FF920F931F93CF936B01A5
:100550007C01742EAC019B010E945E0B882399F0F4
:100560008BE191E0CF911F910F91FF90EF90DF9081
:10057000CF90BF90AF909F908F907F906F905F9043
:100580004F900C94430246015701E894B7F82FEFBF
:100590003FEF4FE75FE7C501B4010E945E0B811199
:1005A0000DC02FEF3FEF4FE75FE7C501B4010E9499
:1005B000D30818161CF48FE191E0D4CF2FEF3FEF52
:1005C0004FE75FE4C701B6010E94590B18161CF4EF
:1005D00083E291E0C7CF2FEF3FEF4FE75FECC7011A
:1005E000B6010E94D30887FDF3CF20E030E0A901D7
:1005F000C701B6010E94D30810E000E087FF0AC0DF
:100600006DE286E292E00E9470018C01F7FAF094AC
:10061000F7F8F094C0E060E070E080E09FE37C16C3
:1006200041F020E030E040E251E40E94B80ACF5FA0
:10063000F6CFA70196010E944C0A2B013C010E94B3
:100640002A0B4B015C014AE00E9454027C01E00E3F
:10065000F11ECC23C1F1C501B4010E94D8089B0151
:10066000AC01C301B2010E944B0A4B015C016EE276
:1006700086E292E00E947001E80EF91EC15018F166
:1006800020E030E040E251E4C501B4010E943909A4
:100690002B013C010E942A0B4B01B12CA12C4AE0FA
:1006A000C501B4010E945402E80EF91EC501B4014F
:1006B0000E94D8089B01AC01C301B2010E944B0A01
:1006C0004B015C01DBCFC701CF911F910F91FF90D0
:1006D000EF90DF90CF90BF90AF909F908F907F90E2
:1006E0006F905F904F9008950F931F93CF93DF9378
:1006F0008C01EB01FC01808191810097E1F0688120
:10070000798161157105A9F0428153812C813D8168
:100710004217530770F00E94760D8C819D81F8017D
:10072000958384831D821C82DF91CF911F910F914D
:1007300008950E94270C88819981F8019183808314
:100740008A819B81938382838C819D81958384831D
:10075000198218821B821A82E5CFFC018081918167
:10076000009711F00C94270C08950F931F93CF93CB
:10077000DF93EC0188819981009759F02A813B81B0
:100780002617370730F081E0DF91CF911F910F914D
:1007900008958B016F5F7F4F0E94B00C009759F056
:1007A000998388831B830A832C813D81232B59F7EE
:1007B000FC011082E8CF80E0E7CFEF92FF920F9329
:1007C0001F93CF93DF93EC017B018A01BA010E9452
:1007D000B50328813981811114C02115310519F023
:1007E000C9010E94270C198218821D821C821B825B
:1007F0001A82CE01DF91CF911F910F91FF90EF9060
:1008000008951D830C83B701C9010E94760DF1CFB5
:10081000EF92FF920F931F93CF93DF9300D0CDB74A
:10082000DEB78C01FC0111821082138212821582C4
:10083000148250E040E06AE171E00E94DD030E9412
:10084000E00097FD1EC089831A82F801E480F580DC
:10085000FFEFEF1AFF0AB701C8010E94B503882312
:1008600071F3F8012081318184819581BE016F5F30
:100870007F4F820F931F0E94760DF801F582E4826C
:10088000DECFC8010F900F90DF91CF911F910F9194
:10089000FF90EF9008951F920F920FB60F921124C0
:1008A0002F933F934F935F936F937F938F939F9378
:1008B000AF93BF93EF93FF9386E292E00E944E01C5
:1008C000FF91EF91BF91AF919F918F917F916F9128
:1008D0005F914F913F912F910F900FBE0F901F90FE
:1008E00018951F920F920FB60F9211242F938F938A
:1008F0009F93EF93FF93E0913602F091370280814E
:10090000E0913C02F0913D0282FD1BC090818091FC
:100910003F028F5F8F7320914002821741F0E09178
:100920003F02F0E0EA5DFD4F958F80933F02FF911B
:10093000EF919F918F912F910F900FBE0F901F906D
:1009400018958081F4CF1F920F920FB60F92112449
:100950002F933F938F939F93AF93BF9380912202E6
:1009600090912302A0912402B091250230911402AB
:1009700023E0230F2D3758F50196A11DB11D2093BB
:1009800014028093220290932302A0932402B09336
:1009900025028091150290911602A0911702B09144
:1009A00018020196A11DB11D8093150290931602A5
:1009B000A0931702B0931802BF91AF919F918F91AE
:1009C0003F912F910F900FBE0F901F90189526E822
:1009D000230F0296A11DB11DD2CFE6E2F2E01382F1
:1009E000128288EE93E0A0E0B0E084839583A68332
:1009F000B7838AE091E09183808385EC90E09587CE
:100A0000848784EC90E09787868780EC90E0918BD8
:100A1000808B81EC90E0938B828B82EC90E0958BC5
:100A2000848B86EC90E0978B868B118E128E138EC2
:100A3000148EE9ECF2E01182108213821282158288
:100A4000148241E050E067E271E0CF010E94DD03D3
:100A5000E3ECF2E01182108213821282158214827A
:100A600041E050E069E271E0CF010C94DD03CF93E7
:100A7000DF9300D000D000D0CDB7DEB7789484B536
:100A8000826084BD84B5816084BD85B5826085BD8A
:100A900085B5816085BD80916E00816080936E0018
:100AA000109281008091810082608093810080910A
:100AB00081008160809381008091800081608093BB
:100AC00080008091B10084608093B1008091B0007B
:100AD00081608093B00080917A00846080937A0076
:100AE00080917A00826080937A0080917A008160A0
:100AF00080937A0080917A00806880937A001092C7
:100B0000C100E0913602F091370282E08083E091EB
:100B10003202F091330281E08083E0913402F0915F
:100B2000350280EA808310923E02E0913A02F09111
:100B30003B0286E08083E0913802F09139028081A7
:100B400080618083E0913802F09139028081886071
:100B50008083E0913802F09139028081806880833F
:100B6000E0913802F091390280818F7D80838BE2A1
:100B700091E00E9443020E94500291E6392E00E06B
:100B800010E041E050E069E271E083EC92E00E9405
:100B9000DD0341E050E067E271E089EC92E00E9401
:100BA000DD033092210286E691E00E9443021A8220
:100BB00019821C821B821E821D826091C302709169
:100BC000C4026115710541F04091C7025091C802FD
:100BD000CE0101960E94DD03CE0101960E94020221
:100BE000F82ECE0101960E94AD03F11016C086E2E8
:100BF00092E00E942E01892BD1F3CE0101960E9432
:100C00000804BE016F5F7F4F83EC92E00E94740383
:100C1000CE0101960E94AD03CACF8091C30290918C
:100C2000C402009709F45FC00E945E0760931D0232
:100C300070931E0280931F02909320024091C7027E
:100C40005091C8026091C3027091C40286E292E0A2
:100C50000E9490000E94500260911D0270911E023D
:100C600080911F029091200242E00E9498020E940F
:100C700050028BE791E00E9443021A8219821C8283
:100C80001B821E821D826091C9027091CA02611589
:100C9000710541F04091CD025091CE02CE010196F6
:100CA0000E94DD03CE0101960E940202F82ECE01C1
:100CB00001960E94AD03F1101AC086E292E00E94F4
:100CC0002E01892BD1F3CE0101960E940804BE01AA
:100CD0006F5F7F4F89EC92E00E947403CE01019612
:100CE0000E94AD03CACF60E070E0CB019FCF80913E
:100CF000C9029091CA02009709F440C00E945E07A1
:100D00006093190270931A0280931B0290931C0245
:100D10004091CD025091CE026091C9027091CA02F9
:100D200086E292E00E9490000E94500260911902B7
:100D300070911A0280911B0290911C0242E00E9465
:100D400098020E9450028DE891E00E94430286E2E0
:100D500092E00E942E01892BD1F3609121026B3227
:100D600089F06D3279F06A3269F06F3259F086E2BB
:100D700092E00E94CC0080932102EFCF60E070E00F
:100D8000CB01BECF86E292E00E9470010E94500229
:100D9000C0901902D0901A02E0901B02F0901C0241
:100DA00020E030E0A901C701B6010E94D3082091DC
:100DB0002102811138C02F32B1F580EB91E00E9401
:100DC00043020E9450020E94DD012B013C0184E19C
:100DD000C82ED12CE12CF12C0E94DD01641975097B
:100DE00086099709683E734081059105A8F321E0C3
:100DF000C21AD108E108F10888EE480E83E0581EB7
:100E0000611C711CC114D104E104F10429F701151E
:100E1000110509F4B6CE0E943A01882309F4B1CE37
:100E20000E940000AECE60911D0270911E02809162
:100E30001F02909120022B32C1F054F42A3259F152
:100E400042E0C501B4010E9498020E945002B9CF4D
:100E50002D32C1F02F32A1F7A70196010E94B80AE6
:100E60004B015C0185E092E00AC09B01AC01C70127
:100E7000B6010E944C0A4B015C0188ED91E00E9492
:100E80004302DECFA70196010E944B0A4B015C0191
:100E900087EE91E0F4CF9B01AC01C701B6010E943F
:100EA00039094B015C0186EF91E0E9CF83EC92E0D8
:100EB0000E94AD0389EC92E00C94AD03662777277E
:100EC0000C946207B0E0A0E0E8E6F7E00C940B0AAF
:100ED0005C017B016115710519F0DB018D939C9319
:100EE00085010F5F1F4FF501D0818D2F90E00E948B
:100EF000B2086C01892BB9F5DD32B9F50F5F1F4FD0
:100F0000D5011196DC91C1E05801F1E0AF1AB108AA
:100F100043E050E060E770E0C5010E94BB08892B08
:100F200069F5680182E0C80ED11C45E050E06BE62F
:100F300070E0C6010E94BB08892B21F4680197E08C
:100F4000C90ED11CE114F10419F0D701CD92DC9245
:100F500060E070E080E89FEFC111FFC060E070E0EA
:100F600080E89FE7FAC05801BBCFDB3229F4850146
:100F70000E5F1F4FF501D181C0E0C6CF43E050E0C6
:100F800068E670E0C5010E94BB08892BE9F0F80112
:100F900010E000E020E030E0A9015F01B0ED8B2E11
:100FA0008D0E89E08815C8F19C2E689491F88C2FDD
:100FB0008870C2FF16C0811102C00F5F1F4F3196AB
:100FC000D501DC91C92DE9CFE114F10429F00E5FC0
:100FD0001F4FF7011183008360E070E080EC9FE712
:100FE000BCC0882311F001501109A5E0B0E00E94B7
:100FF000FA099B01AC01220F331F441F551F280D16
:10100000311D411D511D283999E93907490799E1D9
:101010005907A8F2C6609C2ED2CFAEEF8A1206C046
:10102000C3FD3CC09C2E689493F8C9CFDF7DD534B6
:10103000A9F580818D3239F4C061DF01129681817A
:1010400062E070E006C0DF018B32C1F3119661E00F
:1010500070E080535D01A61AB70A8A30F8F4E0E820
:10106000CE16ECE0DE065CF4B601660F771F660F65
:10107000771FC60ED71ECC0CDD1CC80ED11C5D011F
:10108000FFEFAF1ABF0A8C9180538A30A8F1C4FFDA
:1010900003C0D194C194D1080C0D1D1DC1FF09C01E
:1010A000E114F10431F081E0A81AB108D701AD9242
:1010B000BC92CA01B9010E94D808C370C33009F4B8
:1010C00090584B015C0120E030E0A9010E94D30858
:1010D000882309F440C0CFE9D0E017FF05C011957F
:1010E00001951109C7E8D0E06E01B8E1CB1AD1082B
:1010F00080E2E82EF12C0FC0D501B1CFFE01259181
:101100003591459154910E191F09C501B4010E94F2
:1011100039094B015C01D501C4010E151F0574F797
:101120002497F594E794CC16DD06A9F78A2F880F4B
:101130008B2F881F8F3F49F020E030E0A901C501C7
:10114000B4010E94D308811106C082E290E090931E
:10115000D0028093CF02C501B401CDB7DEB7ECE079
:101160000C94270A91110C94A609803219F0895029
:101170008550C8F70895FB01DC014150504088F0CC
:101180008D9181341CF08B350CF4805E6591613457
:101190001CF06B350CF4605E861B611171F3990BCA
:1011A0000895881BFCCF0E94150908F481E008957A
:1011B000E89409C097FB3EF49095809570956195F1
:1011C0007F4F8F4F9F4F9923A9F0F92F96E9BB27A7
:1011D0009395F695879577956795B795F111F8CF23
:1011E000FAF4BB0F11F460FF1BC06F5F7F4F8F4F8E
:1011F0009F4F16C0882311F096E911C0772321F084
:101200009EE8872F762F05C0662371F096E8862F1B
:1012100070E060E02AF09A95660F771F881FDAF772
:10122000880F9695879597F90895990F0008550F9F
:10123000AA0BE0E8FEEF16161706E807F907C0F05C
:1012400012161306E407F50798F0621B730B840B64
:10125000950B39F40A2661F0232B242B252B21F43E
:1012600008950A2609F4A140A6958FEF811D811DDE
:1012700008950E944C090C94C0090E94B20938F0EC
:101280000E94B90920F0952311F00C94A9090C943F
:10129000AF0911240C94F4090E94D10970F3959FB1
:1012A000C1F3950F50E0551F629FF001729FBB275D
:1012B000F00DB11D639FAA27F00DB11DAA1F649FF9
:1012C0006627B00DA11D661F829F2227B00DA11DAC
:1012D000621F739FB00DA11D621F839FA00D611D32
:1012E000221F749F3327A00D611D231F849F600D53
:1012F000211D822F762F6A2F11249F5750409AF07C
:10130000F1F088234AF0EE0FFF1FBB1F661F771F07
:10131000881F91505040A9F79E3F510580F00C94D2
:10132000A9090C94F4095F3FE4F3983ED4F3869541
:1013300077956795B795F795E7959F5FC1F7FE2B72
:10134000880F911D9695879597F908959927882775
:10135000089597F99F6780E870E060E008959FEF37
:1013600080EC089500240A9416161706180609063C
:10137000089500240A94121613061406050608950B
:10138000092E0394000C11F4882352F0BB0F40F493
:10139000BF2B11F460FF04C06F5F7F4F8F4F9F4FD3
:1013A000089557FD9058440F551F59F05F3F71F055
:1013B0004795880F97FB991F61F09F3F79F08795BC
:1013C0000895121613061406551FF2CF4695F1DF45
:1013D00008C0161617061806991FF1CF86957105D5
:1013E000610508940895E894BB2766277727CB0109
:1013F00097F908950E943C0AA59F900DB49F900D07
:10140000A49F800D911D112408952F923F924F9219
:101410005F926F927F928F929F92AF92BF92CF9284
:10142000DF92EF92FF920F931F93CF93DF93CDB78D
:10143000DEB7CA1BDB0B0FB6F894DEBF0FBECDBF05
:1014400009942A88398848885F846E847D848C84D6
:101450009B84AA84B984C884DF80EE80FD800C81DF
:101460001B81AA81B981CE0FD11D0FB6F894DEBFC2
:101470000FBECDBFED010895A29FB001B39FC00183
:10148000A39F700D811D1124911DB29F700D811DB0
:101490001124911D08955058BB27AA270E94630A62
:1014A0000C94C0090E94B20938F00E94B90920F0DA
:1014B00039F49F3F19F426F40C94AF090EF4E0952B
:1014C000E7FB0C94A909E92F0E94D10958F3BA1738
:1014D000620773078407950720F079F4A6F50C944A
:1014E000F3090EF4E0950B2EBA2FA02D0B01B901D4
:1014F00090010C01CA01A0011124FF27591B99F08A
:10150000593F50F4503E68F11A16F040A22F232F95
:10151000342F4427585FF3CF469537952795A795E5
:10152000F0405395C9F77EF41F16BA0B620B730B8C
:10153000840BBAF09150A1F0FF0FBB1F661F771FFD
:10154000881FC2F70EC0BA0F621F731F841F48F4B2
:10155000879577956795B795F7959E3F08F0B0CF3B
:101560009395880F08F09927EE0F97958795089522
:101570000E94CC0A0C94C0090E94B90958F00E943C
:10158000B20940F029F45F3F29F00C94A9095111E8
:101590000C94F4090C94AF090E94D10968F39923C3
:1015A000B1F3552391F3951B550BBB27AA2762175F
:1015B0007307840738F09F5F5F4F220F331F441F6C
:1015C000AA1FA9F335D00E2E3AF0E0E832D09150A0
:1015D0005040E695001CCAF72BD0FE2F29D0660F8D
:1015E000771F881FBB1F261737074807AB07B0E8D0
:1015F00009F0BB0B802DBF01FF2793585F4F3AF0D6
:101600009E3F510578F00C94A9090C94F4095F3FB2
:10161000E4F3983ED4F3869577956795B795F7955B
:101620009F5FC9F7880F911D9695879597F9089543
:10163000E1E0660F771F881FBB1F621773078407DF
:10164000BA0720F0621B730B840BBA0BEE1F88F7EE
:10165000E09508950E94D90988F09F5798F0B92F16
:101660009927B751B0F0E1F0660F771F881F991FD7
:101670001AF0BA95C9F714C0B13091F00E94F3097D
:10168000B1E008950C94F309672F782F8827B85F8D
:1016900039F0B93FCCF3869577956795B395D9F72F
:1016A0003EF490958095709561957F4F8F4F9F4F39
:1016B00008950E94150908F48FEF08950E941509F6
:1016C000880B990B0895A1E21A2EAA1BBB1BFD01E2
:1016D0000DC0AA1FBB1FEE1FFF1FA217B307E40711
:1016E000F50720F0A21BB30BE40BF50B661F771F69
:1016F000881F991F1A9469F7609570958095909549
:101700009B01AC01BD01CF010895EE0FFF1F0590B5
:10171000F491E02D09940F931F93CF93DF938230C0
:10172000910510F482E090E0E091D302F091D402B0
:1017300030E020E0B0E0A0E0309799F421153105C9
:1017400009F44AC0281B390B24303105D8F58A81A9
:101750009B816115710589F1FB0193838283FE01F1
:1017600011C0408151810281138148175907E0F06F
:101770004817590799F4109761F012960C93129735
:1017800013961C933296CF01DF91CF911F910F9149
:1017900008950093D3021093D402F4CF211531059C
:1017A00051F04217530738F0A901DB019A01BD013E
:1017B000DF01F801C1CFEF01F9CF9093D4028093FC
:1017C000D302CDCFFE01E20FF31F819391932250FC
:1017D000310939832883D7CF2091D1023091D202A9
:1017E000232B41F420910201309103013093D20266
:1017F0002093D10220910001309101012115310582
:1018000041F42DB73EB74091040150910501241BCE
:10181000350BE091D102F091D202E217F307A0F468
:101820002E1B3F0B2817390778F0AC014E5F5F4F36
:101830002417350748F04E0F5F1F5093D202409394
:10184000D102819391939FCFF0E0E0E09CCFCF93C2
:10185000DF930097E9F0FC01329713821282A09186
:10186000D302B091D402ED0130E020E01097A1F452
:1018700020813181820F931F2091D1023091D202B9
:101880002817390709F061C0F093D202E093D10222
:10189000DF91CF910895EA01CE17DF07E8F54A817D
:1018A0005B819E0141155105B1F7E901FB83EA8394
:1018B00049915991C40FD51FEC17FD0761F4808140
:1018C00091810296840F951FE90199838883828113
:1018D00093819B838A83F0E0E0E012968D919C9146
:1018E00013970097B9F52D913C911197CD01029670
:1018F000820F931F2091D1023091D202281739070D
:1019000039F6309751F51092D4021092D302B09369
:10191000D202A093D102BCCFD383C2834081518134
:10192000840F951FC817D90761F44E5F5F4F8881F8
:101930009981480F591F518340838A819B819383EA
:1019400082832115310509F0B0CFF093D402E093E2
:10195000D3029ECFFD01DC01C0CF13821282D7CF0C
:10196000B0E0A0E0E6EBFCE00C94070A8C010097E5
:1019700051F4CB010E948B0B8C01C801CDB7DEB7AF
:10198000E0E10C94230AFC01E60FF71F9C012250B2
:101990003109E217F30708F49DC0D901CD91DC911C
:1019A0001197C617D70798F0C530D10530F3CE018F
:1019B00004978617970708F3C61BD70B2297C19386
:1019C000D1936D937C93CF010E94270CD6CF5B01FE
:1019D000AC1ABD0A4C018C0E9D1EA091D302B09191
:1019E000D402512C412CF12CE12C109731F580912F
:1019F000D1029091D2028815990509F05CC0461673
:101A0000570608F058C0809100019091010100979D
:101A100041F48DB79EB74091040150910501841B9C
:101A2000950BE817F90708F055C0F093D202E09340
:101A3000D102F90171836083A0CF8D919C911197A0
:101A400012966C90129713967C901397A815B9056F
:101A500059F56C0142E0C40ED11CCA14DB0420F11C
:101A6000AC014A195B09DA011296159780F062827F
:101A7000738251834083D9016D937C93E114F10407
:101A800071F0D7011396FC93EE93129776CF2296BE
:101A90008C0F9D1FF90191838083F301EFCFF093A9
:101AA000D402E093D30269CF4816590608F42C01FA
:101AB0007D01D3019ACFCB010E948B0B7C01009753
:101AC00049F0AE01B8010E946D0DC8010E94270CBB
:101AD000870153CF10E000E050CFFB01DC0102C0D2
:101AE00001900D9241505040D8F70895FB01DC0160
:101AF00001900D920020E1F7089510E0C3E5D0E0D9
:101B000004C0FE010E94850B2196C435D107C9F798
:041B1000F894FFCF77
:101B14000000D50280000000000070019000BD00AC
:101B2400BD012E01CC0020010D0A006E616E00691A
:101B34006E66006F766600620061004B616C6B75C7
:101B44006C61746F7220706F7A77616C616A616323
:101B540079206E612077796B6F6E7977616E696534
:101B640020706F64737461776F7779636820647A27
:101B740069616C616E005069657277737A61206C7B
:101B840069637A62612C20613D200044727567614B
:101B9400206C69637A62613A20623D2000447A696C
:101BA400616C616E69652028202B2C202D2C202A45
:101BB4002C202F292C2077796272616E6F3A2000D5
:101BC4005A6162726F6E696F6E6520647A6961C56D
:101BD40082616E696520647A69656C656E696120ED
:101BE40070727A657A20300057796E696B206120B3
:101BF4002B2062203D200057796E696B2061202DD7
:101C04002062203D200057796E696B2061202A20D4
:101C140062203D200057796E696B2061202F20627D
:041C2400203D20003F
:00000001FF
